:020000040800F2
:10000000A0CA042019030008996E00084F67000871
:10001000FD6D0008F1140008B3A500080000000001
:1000200000000000000000000000000083950008B0
:100030002F16000800000000ED790008A1970008C5
:10004000330300083303000833030008397C000839
:1000500033030008330300083303000833030008A8
:100060003303000833030008B127000833030008F6
:100070003303000833030008330300083303000888
:100080003303000833030008330300083303000878
:100090003303000833030008330300083303000868
:1000A0003303000833030008330300083303000858
:1000B000330300080D98000849980008330300082E
:1000C0003303000833030008330300083303000838
:1000D0003303000833030008330300083303000828
:1000E00033030008797B000833030008330300085A
:1000F0003303000833030008330300083303000808
:1001000033030008F98000083303000833030008B4
:10011000C19E0008330300083303000833030008BE
:10012000330300083303000833030008F514000804
:1001300033030008330300083303000833030008C7
:1001400033030008330300083303000833030008B7
:1001500033030008051500083303000833030008C3
:100160003303000833030008330300083303000897
:1001700033030008330300083303000800000000C5
:100180003303000833030008330300083303000877
:100190003303000833030008330300083303000867
:1001A0003303000833030008330300083303000857
:1001B0003303000833030008330300083303000847
:1001C0003303000833030008000000003303000875
:1001D0003303000833030008330300083303000827
:1001E0003303000833030008330300083303000817
:1001F000330300083303000800F002F800F075F83C
:100200000AA090E8000C82448344AAF10107DA4571
:1002100001D100F06AF8AFF2090EBAE80F0013F04E
:10022000010F18BFFB1A43F00103184710C4030065
:1002300030C403000A444FF0000C10F8013B13F0E7
:10024000070408BF10F8014B1D1108BF10F8015B2F
:10025000641E05D010F8016B641E01F8016BF9D122
:1002600013F0080F1EBF10F8014BAD1C0C1B09D179
:100270006D1E58BF01F801CBFAD505E014F8016BEB
:1002800001F8016B6D1EF9D59142D6D3704700007D
:100290000023002400250026103A28BF78C1FBD88F
:1002A000520728BF30C148BF0B60704703681B0A64
:1002B00028BF41F08001642900F03881752900F0E1
:1002C0003581782900F0D781E42900F06B8163291A
:1002D00000F05D84732900F06284002070471FB530
:1002E00011F0D9F91FBD10B510BD00F077FC114613
:1002F000FFF7F5FF0EF072FB00F095FC03B4FFF77B
:10030000F2FF03BC0AF009FA30BF72B6704762B65A
:10031000704780F3088870470948804709480047BC
:10032000FEE7FEE7FEE7FEE7FEE7FEE7FEE7FEE7A5
:10033000FEE7FEE704480549054A064B7047000002
:10034000A9970008F9010008A0C40420A0CA04204D
:10035000A0C60420A0C60420704753EA020C00F097
:1003600069802DE9F04B4FF00006002B1FBFB3FA58
:1003700083F503FA05F424FA05F65E4012BF16432E
:10038000B2FA82F502FA05F4C5F120051EBF22FA81
:1003900005FC44EA0C04203556EA044C4FEA1444A8
:1003A00018BF641C4FF000084FF00009904271EB39
:1003B000030C39D3002919BFB1FA81F701FA07F606
:1003C000B0FA80F700FA07F6C7F120071EBF20FA3F
:1003D00007FC46EA0C062037B6FBF4FCA7EB050742
:1003E000103F07F01F0BCBF120060CFA0BFB2CFA89
:1003F00006F644BFB3460026202FA4BF5E464FF04A
:10040000000B5BEA060C08BF4FF0010B19EB0B0960
:10041000ABFB027C48EB0608C01B06FB02CC0BFBC7
:1004200003CC71EB0C01C1E70B460246414648463E
:10043000BDE8F08B13B54FF000004FF00001AFF3B3
:100440000080BDE81C4070470FB4044910B503AAF2
:10045000029800F0A9FB10BC5DF814FB0800022014
:100460000FB41CB5084B06AA7B446946009005985A
:1004700000F06BFB04460020694600F079FB204643
:100480001CBC5DF814FB00000507000070B50446B5
:1004900085690068C10601D5302600E02026C00726
:1004A00007D070BDD4E9012130469047206A401C36
:1004B00020626D1EF6D570BD70B504468569007862
:1004C000C00707D170BDD4E9012120209047206AE0
:1004D000401C20626D1EF6D570BD70B50C460546F9
:1004E000012A05D02878800600D5EA69002302E0B9
:1004F000012305E05B1C934202D2E05C0028F9D1A5
:10050000A869E618C01AA861286A18442862284613
:10051000FFF7BCFF04E0D5E9012114F8010B904777
:10052000B442F8D32846FFF7C7FF70BD2DE9F0416C
:100530000646002410687529314616A510D0AFF381
:100540000080002802DA404213A507E031688A07DC
:1005500001D512A502E0490704D511A5012401E047
:10056000AFF3008000210A2206F1240709E0B0FB66
:10057000F2FCB0FBF2F302FB1C003030785418465A
:10058000491C0028F3D123462A463046BDE8F041F5
:1005900000F07CBA000000002D0000002B000000DD
:1005A000200000002DE9F0418046D21D22F0070214
:1005B0000025D2E90002F52915A614D0011E72F11A
:1005C000000106DA0023D0EB030063EB020211A660
:1005D00008E0D8F800108B0701D50FA602E0490704
:1005E00001D50EA601251146002408F1240704E0D8
:1005F00000F007FA30323A55641C50EA0102F7D194
:100600002B46324621464046BDE8F04100F03EBA56
:10061000000000002D0000002B0000002000000062
:10062000F0B40D460188090502D5214C7C4402E056
:100630001F4C7C440E34002100F1240608E002F037
:100640000F071209E75D42EA03721B097754491C40
:1006500052EA0307F3D102780023120704D5702D64
:1006600006D009B1022311342246F0BC00F00EBAC4
:1006700001231034F8E770B504460D462146106892
:10068000AFF30080024629462046BDE870400023B3
:10069000C6E7D21D22F00703D3E90023C0E70368B1
:1006A000126843F0200303600823C3610023B7E707
:1006B000B4BC03002DE9F05F894604464FF0000A00
:1006C000DFF874B1FB44C0F820A02046E1688847F9
:1006D000002874D0252806D0D4E901219047206A4B
:1006E000401C2062F1E700265F462046E16888470B
:1006F0002028054607DB312D05D2781910F8200C8B
:1007000008B10643F1E7B00701D526F00406C4F8A6
:100710001CA00027C4F818A02A2D09D0284609F0EB
:10072000F5FF38B304EB8708303DC8F8185019E0DE
:1007300059F8041B204604EB87029161E168884761
:10074000012F054618D1E069002820DA26F020069E
:100750001DE0D8F8180000EB800005EB40003038B1
:10076000C8F818002046E1688847054609F0CEFF22
:100770000028EED1012F0AD02E2D08D12046E168A5
:1007800088477F1C0546022F46F02006C4DBA0697F
:10079000002803DA404246F00106A061F00701D0CC
:1007A00026F010066C2D0BD0682D09D04C2D39D0B9
:1007B0006A2D35D0742D35D07A2D33D016E038E03F
:1007C000E1682F4620468847B842054609D16C2F7C
:1007D00026D04FF48060E1680643204688470546EE
:1007E00004E06C2F1AD04FF4807006430DB3A5F1CE
:1007F0004100192802D8203546F400664A462946A9
:10080000204626604E46FFF751FD80B101280BD0EF
:10081000F61D26F0070000F1080956E74020E4E73E
:100820008020D8E70020D6E706F104094DE72846E6
:1008300052E7206ABDE8F09F44BC030010B5431C9A
:1008400002E010F8011B71B18107FAD14FF00132BB
:1008500002C88C1A8C4314EAC211F9D0C01A0A06D5
:1008600003D0C01E10BDC01A10BD0A0401D0801EE6
:1008700010BD0902FCD0401E10BD032A40F230809A
:1008800010F0030C00F0158011F8013BBCF1020FD1
:10089000624498BF11F801CB00F8013B38BF11F852
:1008A000013BA2F1040298BF00F801CB38BF00F869
:1008B000013B11F0030300F02580083AC0F00880E6
:1008C00051F8043B083A51F804CBA0E80810F5E7CA
:1008D000121D5CBF51F8043B40F8043BAFF30080AD
:1008E000D20724BF11F8013B11F801CB48BF11F822
:1008F000012B24BF00F8013B00F801CB48BF00F8F2
:10090000012B704710B5203AC0F00B80B1E81850A9
:10091000203AA0E81850B1E81850A0E81850BFF4E9
:10092000F5AF5FEA027C24BFB1E81850A0E8185088
:1009300044BF18C918C0BDE810405FEA827C24BFDC
:1009400051F8043B40F8043B08BF7047D20728BF6A
:1009500031F8023B48BF11F8012B28BF20F8023BB9
:1009600048BF00F8012B70474FF000020429C0F087
:10097000128010F0030C00F01B80CCF1040CBCF1D1
:10098000020F18BF00F8012BA8BF20F8022BA1EB23
:100990000C0100F00DB85FEAC17C24BF00F8012B08
:1009A00000F8012B48BF00F8012B70474FF0000200
:1009B00000B5134694469646203922BFA0E80C5055
:1009C000A0E80C50B1F12001BFF4F7AF090728BF30
:1009D000A0E80C5048BF0CC05DF804EB890028BFAC
:1009E00040F8042B08BF704748BF20F8022B11F0D5
:1009F000804F18BF00F8012B704770477047704751
:100A0000704730B5B0F10A024FEA900E71F1000361
:100A10004EEA817EB0EB0E0061EB91014FEA101EB1
:100A20004EEA017E10EB0E0041EB11114FEA102E41
:100A30004EEA016E10EB0E0041EB11214FEA104E11
:100A40004EEA014E10EB0E0041EB1141401841F10E
:100A500000014FEAD00040EA41704FEAD10110EBAB
:100A600080054FEA810444EA907444EB01046D1957
:100A700044EB0404521BA3414FF0000348BF0A3269
:100A800000D530BD401C41F1000130BD2DE9F047DB
:100A90000D4699469246044600F1240801688806EE
:100AA00004D5E06921F01001216000E00120A84296
:100AB00001DD471B00E00027A1697A1902EB09005C
:100AC000081AA0612078C00602D42046FFF7DEFC99
:100AD000002608E0D4E901211AF806009047206AB0
:100AE000401C761C20624E45F4DB2078C0060AD5F7
:100AF0002046FFF7CBFC06E0D4E9012130209047E7
:100B0000206A401C2062381EA7F10107F4DC07E0D0
:100B1000D4E9012118F805009047206A401C2062A2
:100B2000281EA5F10105F3DC2046FFF7C5FC20785F
:100B3000000602D50220BDE8F0870120FBE7000097
:100B400001694A1C02610878704700B58FB0CDE991
:100B500001310021059105497944CDE90310114681
:100B60006846FFF7A7FD0FB000BD0000E5FFFFFFDF
:100B70000A6802F8010B0A60704710B5436913B1A7
:100B8000AFF3008001E0FFF7A8FC012010BD127850
:100B900000F124010A7000224A700122EDE7116879
:100BA0004FF0FF32E9E70000074B70B50D467B447C
:100BB000FFF7CBFF0446284600F008F810B14FF0CD
:100BC000FF3070BD204670BDBBD50000007B00F03B
:100BD000800070470048704740C404207546FFF706
:100BE000F9FFAE4605006946534620F007008546EA
:100BF00018B020B5FFF79EFBBDE820404FF000067F
:100C00004FF000074FF000084FF0000B21F00701F4
:100C1000AC46ACE8C009ACE8C009ACE8C009ACE837
:100C2000C0098D4670470446AFF300802046FFF7A9
:100C300065FB10B508F096FB08F072FB10BD0000D4
:100C400070B52DED028B06460C4600BF4AF2D73038
:100C50006043FE2190FBF1F042F6F601084400EEFD
:100C6000100AB8EEC00BB0EE408BBCEEC80B10EE15
:100C7000100A85B200224FF480510A4802F0B4FDF8
:100C8000304608F04BFA281208F048FAE8B208F0AB
:100C900045FA01221103034802F0A6FDBDEC028BC8
:100CA00070BD00000004024070B50546AC6B206CBE
:100CB00000F0500050BB206C40F4007020642068AD
:100CC000806800F04050E8B9A069D8B92068C06ACF
:100CD00000F4700020B12068806800F4806088B95A
:100CE0002068406820F0200021684860206C20F4D3
:100CF00080702064206C00F4805018B9206C40F0A3
:100D000001002064204601F0DBFF03E0A06BC16C12
:100D10002846884770BD70B50546AC6B40202064FE
:100D2000606C40F004006064204601F0CBFF70BDB1
:100D300070B50446A56B284601F0C3FF70BD0000E6
:100D40005A49096821F44031594AC2F8041311463E
:100D5000D1F8041342681143544A1160016849688C
:100D600021F480710268516001684A68016942EAB1
:100D70000121026851600168496821F040710268F0
:100D800051600168496882681143026851600168D6
:100D9000896821F400610268916001688968C2680D
:100DA000114302689160434A816A914218D00168F8
:100DB000896821F070610268916001688968826ABF
:100DC0001143026891600168896821F0405102680E
:100DD000916001688968C26A1143026891600BE002
:100DE0000168896821F07061026891600168896812
:100DF00021F04051026891600168896821F0020188
:100E00000268916001688A68816942EA410102686A
:100E10009160016AD1B10168496841F400610268DA
:100E200051600168496821F46041026851600168BD
:100E30004A68416A491E4FF4604393FAA3F3B3FA38
:100E400083F399400A4301684A6005E001684968F4
:100E500021F40061026851600168C96A21F47001DF
:100E60000268D1620168CA6A818B491E42EA015157
:100E70000268D1620168896821F40071026891609A
:100E800001688A68016B42EA412102689160016849
:100E9000896821F480610268916001688A6841690B
:100EA00042EA8121026891607047000004230140FA
:100EB000002001400100000F10B5002400BF04E035
:100EC000002099490855601CC4B2222CF8DB01218E
:100ED000002000F05CF99449087008460078FF286B
:100EE00003D008460078002876D1AA208E490870E1
:100EF000AC204870122088708920C870F1200871D9
:100F0000AC204871122088718920C8711F20087296
:100F1000FF20487288720020C8720873AC204873A2
:100F2000122088738920C873012008747F480079D3
:100F300048747E48407988747C488079C8747B48BE
:100F4000C07908757948007A48757848407A88757C
:100F50001320C87588200876172048767020887678
:100F60002320C876282008771F20487740208877DC
:100F70000020C87781F82000012081F8210000209E
:100F800081F82200232200F044F9012407E066489A
:100F9000025D601E65490A310A54601CC4B2052C0A
:100FA000F5DB052407E06048025D601F5F491631EC
:100FB0000A54601CC4B2092CF5DB092408E05A4825
:100FC000025DA4F1090059490E310A54601CC4B2F3
:100FD0000D2CF4DB0D2409E038E05348025DA4F148
:100FE0000D00524912310A54601CC4B2112CF4DBBA
:100FF000112408E04C48025DA4F111004B49091D81
:101000000A54601CC4B2172CF4DB4748007E4649E2
:10101000C97D00EB0120454948834348807E424911
:10102000497E00EB01204149C8833F48007F3E498B
:10103000C97E00EB01203D4988833B48807F3A49C7
:10104000497F00EB0120394908846CE0002404E06A
:10105000002035490855601CC4B2222CF8DB22223E
:101060003149002000F082F8012407E02E48025D9B
:10107000601E2E490A310A54601CC4B2052CF5DBEF
:10108000052407E02848025D601F284916310A54EC
:10109000601CC4B2092CF5DB092408E02248025D7B
:1010A000A4F1090021490E310A54601CC4B20D2C70
:1010B000F4DB0D2408E01C48025DA4F10D001B497F
:1010C00012310A54601CC4B2112CF4DB112408E064
:1010D0001548025DA4F111001449091D0A54601C51
:1010E000C4B2172CF4DB1048007E0F49C97D00EB19
:1010F00001200E4948830C48807E0B49497E00EB55
:1011000001200A49C8830848007F0749C97E00EBCF
:101110000120064988830448807F0349497F00EB0A
:1011200001200249088410BD40050220061A022051
:1011300010B540F2FF1000F040F80446552C01D1E4
:10114000002010BD552140F2FF1000F074F840F26D
:10115000FF1000F032F80446552C01D10020F0E7D2
:101160000120EEE710B505F05DFB10BD70B5064639
:101170000C46154608E03046721C96B200F01DF889
:1011800004F8010B681E85B2002DF4D170BD2DE965
:10119000F04107460C460026002509E036023919C1
:1011A000491B491E88B200F008F80644681CC5B205
:1011B000A542F3DB3046BDE8F08170B50446002659
:1011C00005F000FC2546E11704EB11610912A0228D
:1011D00002EB4101C8B205F0B5FB05F04BFCE1178D
:1011E00004EB11610912A4EB0121C8B205F0AAFBBE
:1011F00005F040FC05F0E6FBA12005F0A3FB05F09F
:1012000039FC002005F066FB064605F007FC304679
:1012100070BD70B505460C46164606E02178284696
:1012200000F009F8681C85B2641C3000A6F10101C9
:101230008EB2F3D170BD70B504460E4605F0C2FB08
:101240002546E11704EB11610912A02202EB4101CE
:10125000C8B205F077FB05F00DFCE11704EB116156
:101260000912A4EB0121C8B205F06CFB05F002FCE9
:10127000304605F067FB05F0FDFB05F0CFFB0A20CB
:1012800009F0BCFD70BD00003EB504463549E01CC8
:10129000085C0290012202A92220FFF7BAFF322047
:1012A00009F0ACFD012201A92220FFF75FFF2E48C3
:1012B000FFF7C4FA054629462B48FFF755FB9DF872
:1012C00008009DF80410884215D1FE2026490870B8
:1012D00007204870882088709DF80800C870AA20F0
:1012E000087103212048401C01F0F8FB1E49487199
:1012F000FF20887114E0FE201B4908700720487009
:10130000882088709DF80800C87055200871032156
:101310001548401C01F0E2FB13494871FF20887119
:101320001248808B114B163307220F490090022080
:101330000EF0E0FC01200E4908700E480088401CA9
:101340000C49088006F042FF012809D10A480268CA
:101350000068401C084B04491860002007F0F2F8B0
:101360003EBD000006120220060A0220061A0220D4
:1013700090000220960002208400022000B587B071
:1013800000BF0F48006840F480700D4908600846AF
:10139000006800F48070019000BF00BF0820029038
:1013A0000120039004900320059002A9054802F053
:1013B00003F901220821034802F016FA07B000BD24
:1013C000303802400020024010B5002208210648B3
:1013D00002F00AFA4FF4FA7009F010FD0122082118
:1013E000014802F001FA10BD0020024038B5002487
:1013F000FE203B4908701D2048708120887003241E
:1014000006E0E01E3749085C35490855601CC4B247
:10141000092CF6DB092408E0A4F109003149891DF3
:10142000085C2F490855601CC4B20D2CF4DB0D2458
:1014300008E0A4F10D002B491231085C2849085539
:10144000601CC4B2112CF4DB112408E0A4F11100DB
:1014500024490A31085C22490855601CC4B2152C85
:10146000F4DB152408E0A4F115001E490E31085CD8
:101470001B490855601CC4B2192CF4DB1948001F25
:10148000408B0012164948761648001F807E8876E9
:1014900019211348401C01F021FB1149C876FF2097
:1014A00008771048001F808B0E4B12331D220090CE
:1014B00002200EF01FFC06F089FE012809D10A481F
:1014C00002680068401C084B05491860002007F0BE
:1014D00039F806480088401C0449088038BD0000DF
:1014E000060A02200A1A0220840002209600022026
:1014F00000BFFEE710B50249886D01F059FD10BD2F
:101500003806022010B50249C86D01F051FD10BD2A
:10151000380602200146087810381823B0FBF3F291
:101520000848805CC865032A05D908686FF309007C
:10153000001D886503E008686FF309008865886D01
:1015400070470000B8160108014600208A6A8B69BE
:1015500003BB32B1012A0CD0022A10D0032A17D1C2
:1015600015E0CB6A03F08073B3F1807F00D10120D6
:101570000FE0CB6AB3F1C07F00D1012009E0CB6A54
:1015800003F08073B3F1807F00D1012001E000E01F
:1015900000BF35E08B69B3F5005F1BD132B1012A82
:1015A00006D0022A0CD0032A12D10BE0012010E051
:1015B000CB6A03F08073B3F1807F00D1012008E093
:1015C000012006E0CB6AB3F1C07F00D1012000E02A
:1015D00000BF15E032B1012A05D0022A04D0032A47
:1015E0000CD103E000BF00BF012008E0CB6A03F08C
:1015F0008073B3F1807F00D1012000E000BF00BF05
:10160000704730B50468246824F4802405682C6091
:10161000046863608468402C04D10468A260046894
:10162000E16003E00468A1600468E26030BD7047D7
:1016300038B5054600240DE02C48025D2846691C9B
:101640008DB22B49085C824202D0681C85B205E04D
:10165000601CC4B227480078A042EDDC00BF2548DA
:101660000078A04241DD002405E02048005D2249C9
:101670000855601CC4B21F480078A042F5DC1F4822
:101680000078032810DA1E48808B009019480278F1
:101690001B4B1633184902200EF02CFB174800781C
:1016A000401C1649087020E01A211048FFF75CF929
:1016B000FE2011490870072048708720887001209B
:1016C000C8700620087102210B48401C01F006FA80
:1016D00009494871FF2088710948808B084B1633EF
:1016E0000722009002200EF005FB38BD341A0220BC
:1016F000061202205E000220060A02208800022054
:10170000061A02202DE9FC5F00264FF001084FF079
:101710000209002400254FF0030A00200190002751
:10172000FB48FFF78BF883465946F948FFF71CF949
:10173000012201A92220FFF719FD9DF804000028CD
:101740003DD000BF39E00120B0409DF804100840B2
:1017500088B3FA21304606F077FAEE4921F81600F0
:10176000ED4830F8160031F81610884223D00120D9
:10177000B0409DF8041008400743601CC4B2E5481F
:1017800030F81600E44921F81600084630F8160033
:1017900000120AEB0801DE4A5054DF4810F8160028
:1017A0000AEB0901505408F1020000F0FF0809F1AA
:1017B000020000F0FF09701CC6B2082EC3DB8021B6
:1017C000D64801F07BF9D649097860F30001D44886
:1017D00001704021D14801F071F9D149097860F3D5
:1017E0004101CF4801700121CC4801F067F9CC4993
:1017F000097860F38201CA4801704FF40041C9487A
:1018000001F05CF9C649097860F3C301C44801706E
:101810004FF40041C14801F051F9C149097860F322
:101820000411BF4801704FF48041BC4801F046F9F3
:10183000BB49097860F34511B94801704FF4007154
:10184000B64801F03BF9B649097860F38611B4480F
:1018500001704FF48071B14801F030F9B049097856
:1018600060F3C711AE4801701021AF4801F026F9AE
:10187000AB49497860F30001A94841702021AA488A
:1018800001F01CF9A649497860F34101A448417070
:101890004FF48061A54801F011F9A149497860F33E
:1018A00082019F4841704FF40061A04801F006F9A1
:1018B0009B49497860F3C301994841704FF48041D6
:1018C000994801F0FBF89649497860F3041194486F
:1018D00041704FF40041944801F0F0F89049497884
:1018E00060F345118E4841704FF400718E4801F04D
:1018F000E5F88B49497860F38611894841704FF4C7
:101900008061894801F0DAF88549497860F3C711A8
:10191000834841702021814801F0D0F880498978BE
:1019200060F300017E48817010217C4801F0C6F808
:101930007B49897860F341017948817008217748B3
:1019400001F0BCF87649897860F3820174488170AF
:101950000221724801F0B2F87149897860F3C3013D
:101960006F4881704FF400516C4801F0A7F86C4942
:10197000897860F304116A4881704FF48051674898
:1019800001F09CF86649897860F3451164488170DC
:101990004FF40061614801F091F86149897860F382
:1019A00086115F4881704FF480615C4801F086F8D1
:1019B0005B49897860F3C7115948817004215A48FE
:1019C00001F07CF85649C97860F300015448C170B1
:1019D0000821554801F072F85149C97860F3410176
:1019E0004F48C1700121504801F068F84C49C9784E
:1019F00060F382014A48C17002214B4801F05EF851
:101A00004749C97860F3C3014548C1704FF400519C
:101A1000454801F053F84249C97860F30411404841
:101A2000C1704FF48051404801F048F83C49C978F2
:101A300060F345113A48C1704FF400613A4801F033
:101A40003DF83749C97860F386113548C1704FF4C5
:101A50008071354801F032F83149C97860F3C71117
:101A60002F48C170006832490968884200D137B3F5
:101A70000A2009F0C3F92A4800682D4909688842FC
:101A800000D1E7B12648C0782949C978484018B143
:101A900004202849087020E021488078244989786A
:101AA000484018B103202349087016E01C484078CC
:101AB0001F494978484018B102201E4908700CE0BF
:101AC000174800781A490978484018B10120194987
:101AD000087002E000201749087011480068154995
:101AE000C1F801000E4800681149086011480078EB
:101AF00000287DD0002F7BD10E48007801281BD014
:101B000002281FD0032826D0042847D12FE0000048
:101B1000060A02204E1A02205A1A0220000C024025
:101B20006300022000000240001402400020024036
:101B3000670002205E000220B0484078B04908717A
:101B400007252CE0AD484078AD490871AB48807856
:101B50004871082523E0A9484078A9490871A74899
:101B600080784871A548C0788871092517E0A34896
:101B700041786000001DA24A1154A048817860009D
:101B8000401D11549D48C1786000801D11549B4830
:101B900001796000C01D11540A2500E000BF00BF9C
:101BA000FE20974908700846457001208870084655
:101BB000C770281FC1B29248401C00F08FFFA91EB9
:101BC0008F4A5054FF21681E115406F0FFFA012875
:101BD0000CD18C48007848B18B4802680068401CE2
:101BE000894B87491860002006F0ACFC854800E06E
:101BF00019E00078A0B18548808B844B16332A46C3
:101C00007F49009002200EF075F881480088401C42
:101C10007F49088000207949087001207D490870BB
:101C200001207849087075480078E8BBE7B3600088
:101C3000801DC5B2FE20724908700846457001201B
:101C400088700846C770281FC1B26D48401C00F05C
:101C500045FFA91E6A4A5054FF21681E115406F020
:101C6000B5FA01280CD16748007848B16648026887
:101C70000068401C644B62491860002006F062FC5A
:101C800060480078B0B16148808B604B16332A46BB
:101C90005B49009002200EF02DF85D480088401C42
:101CA0005B490880002000E007E0544908700120EB
:101CB000584908700120534908705048007800289E
:101CC0007ED0002FFCD04D48007805284ED2DFE8AA
:101CD00000F0493F301C0300484841786000001D77
:101CE000474A1154454881786000401D11544348CB
:101CF000C1786000801D1154404801796000C01D0A
:101D0000115460000A30C5B231E03C4841786000AF
:101D1000001D3B4A1154394881786000401D115420
:101D20003648C1786000801D115460000930C5B28A
:101D30001DE0324841786000001D314A11542F489F
:101D400081786000401D115460000830C5B20EE07B
:101D50002A4841786000001D294A11546000C01DC6
:101D6000C5B204E06000801DC5B200BF00BF00BF67
:101D7000FE202349087008464570012088700846F7
:101D8000C770281FC1B21E48401C00F0A7FEA91E44
:101D90001B4A5054FF21681E115406F017FA0128FF
:101DA0000CD11848007848B1174802680068401CF8
:101DB000154B13491860002006F0C4FB114800E0E1
:101DC00019E00078A0B11148808B104B16332A46D9
:101DD0000B49009002200DF08DFF0D480088401C3B
:101DE0000B49088000200549087001200949087046
:101DF000012004490870BDE8FC9F00005E0002203D
:101E0000060A02209400022084000220061A022002
:101E100096000220900002202DE9F05F0746002581
:101E2000AB460026A9460024A046A2466249781C7B
:101E3000085C624908706049F81C085C5F4948709A
:101E4000381D00F0FF0AD34608464078F8B100BFBD
:101E50001BE05A4841780120A8400140A1B1761CFE
:101E60005648801C415D544AF01C105C81420BD0E6
:101E70001146F01C095C5148801C41550246515DD9
:101E80004F4A505DFEF7DCFE6D1C082DE1D34B4838
:101E90000078801FA0EB0609301DC4B2B9F1000F15
:101EA00069D0B9F1010F59D0B9F1020F44D0B9F19D
:101EB000030F26D0B9F1040F59D13F48015D3F48C7
:101EC000807A61F307003D4988723B49601C095CD8
:101ED0003A48C07A61F307003849C8723649A01CF5
:101EE000095C3648007B61F30700344908733249C6
:101EF000E01C095C3148407B61F307002F494873BF
:101F000036E02D48015D2D48807A61F307002B49AA
:101F100088722949601C095C2848C07A61F307006F
:101F20002649C8722449A01C095C2448007B61F33F
:101F30000700224908731BE01F48015D1F48807A93
:101F400061F307001D4988721B49601C095C1B482E
:101F5000C07A61F307001949C87209E01648015DAB
:101F60001648807A61F307001449887200E000BFC8
:101F700000BF00F03DFA4FF0000809E00E4810F8ED
:101F80000800104901F8080008F1010000F0FF08FE
:101F90000A4800784045F1DC06F018F9012809D11B
:101FA000094802680068401C074B06491860002079
:101FB00006F0C8FABDE8F09F06120220F8090220D8
:101FC00056000220060A0220840002202DE9F04774
:101FD00086B0002401274FF00208002003900490EF
:101FE0000590002500264FF003090290F548FEF702
:101FF00025FC82465146F348FEF7B6FC012202A9B1
:102000002220FFF7B3F800BF0EE00120A0409DF8AA
:102010000810084030B1C821204605F015FE03A97C
:1020200021F81400601CC4B2082CEEDB9DF80800F7
:1020300008B300241DE00120A0409DF808100840CE
:10204000A8B1681CC5B203A830F81400001209EB4F
:102050000701DC4A505403A810F8140009EB0801EA
:102060005054B81CC7B208F1020000F0FF08601C11
:10207000C4B2082CDFDB8021D34800F01FFDD34918
:10208000097860F30001D14801704021CE4800F08A
:1020900015FDCE49097860F34101CC48017001215A
:1020A000C94800F00BFDC949097860F38201C748AF
:1020B00001704FF40041C64800F000FDC3490978A3
:1020C00060F3C301C14801704FF40041BE4800F005
:1020D000F5FCBE49097860F30411BC4801704FF467
:1020E0008041B94800F0EAFCB849097860F345112D
:1020F000B64801704FF40071B34800F0DFFCB349FB
:10210000097860F38611B14801704FF48071AE48D0
:1021100000F0D4FCAD49097860F3C711AB480170F9
:102120001021AC4800F0CAFCA849497860F30001CE
:10213000A64841702021A74800F0C0FCA349497877
:1021400060F34101A14841704FF48061A24800F062
:10215000B5FC9E49497860F382019C4841704FF478
:1021600000619D4800F0AAFC9849497860F3C301DA
:10217000964841704FF48041964800F09FFC934987
:10218000497860F30411914841704FF4004191483F
:1021900000F094FC8D49497860F345118B484170FB
:1021A0004FF400718B4800F089FC8849497860F34E
:1021B0008611864841704FF48061864800F07EFCAD
:1021C0008249497860F3C7118048417020217E48D8
:1021D00000F074FC7D49897860F300017B488170D0
:1021E0001021794800F06AFC7849897860F3410150
:1021F000764881700821744800F060FC7349897842
:1022000060F382017148817002216F4800F056FC32
:102210006E49897860F3C3016C4881704FF40051B6
:10222000694800F04BFC6949897860F304116748FC
:1022300081704FF48051644800F040FC6349897814
:1022400060F34511614881704FF400615E4800F011
:1022500035FC5E49897860F386115C4881704FF4E3
:102260008061594800F02AFC5849897860F3C71109
:10227000564881700421574800F020FC5349C97822
:1022800060F300015148C1700821524800F016FC6B
:102290004E49C97860F341014C48C17001214D4855
:1022A00000F00CFC4949C97860F382014748C170CD
:1022B0000221484800F002FC4449C97860F3C30198
:1022C0004248C1704FF40051424800F0F7FB3F49CB
:1022D000C97860F304113D48C1704FF480513D4806
:1022E00000F0ECFB3949C97860F345113748C170FB
:1022F0004FF40061374800F0E1FB3449C97860F3DE
:1023000086113248C1704FF48071324800F0D6FB1C
:102310002E49C97860F3C7112C48C1702F48417805
:102320006800001D274A11542C4881786800401D20
:1023300011542A48C1786800801D1154274801793A
:102340006800C01D115468000A30C6B2FE20114654
:10235000087008464670022088709DF80800C87012
:10236000301FC1B2501C00F0B9FBB11E154A5054C9
:10237000FF21701E115405F029FF012809D11848CA
:1023800002680068401C164B0E491860002006F0D9
:10239000D9F81448808B134B163332460949009004
:1023A00002200DF0A7FC10480088401C0E49088050
:1023B00000200A49087001200C49087006B0BDE8E9
:1023C000F0870000060A0220000C02406300022091
:1023D0000000024000140240002002405E00022083
:1023E00084000220061A022096000220900002209B
:1023F00010B58F48D0F80A008E49096888427CD011
:102400008B48D0F80A008B4908600A2008F0F6FCD7
:102410008848007800F001020421874800F056FB4C
:1024200084480078C0F340020821834800F04EFB46
:1024300080480078C0F380024FF480717E4800F03D
:1024400045FB7C480078C0F3C0024FF400717A4825
:1024500000F03CFB77480078C0F300124FF4806135
:10246000754800F033FB73480078C0F340124FF416
:102470000061714800F02AFB6E480078C0F38012BA
:102480004FF400416D4800F021FB6A480078C20912
:102490004FF48041694800F019FB6648407800F02D
:1024A00001024FF40051654800F010FB614840788C
:1024B000C0F340024FF48051604800F007FB5D48D4
:1024C0004078C0F380024FF480715C4800F0FEFA5F
:1024D00058484078C0F3C0024FF40071574800F0EC
:1024E000F5FA54484078C0F300124FF48061534825
:1024F00000F0ECFA4F48407800E097E0C0F340125B
:1025000040214E4800F0E2FA4A484078C0F3801279
:1025100002214A4800F0DAFA46484078C20901210F
:10252000464800F0D3FA4348807800F001021021B9
:10253000414800F0CBFA3F488078C0F340022021A8
:102540003D4800F0C3FA3B488078C0F38002402148
:10255000394800F0BBFA37488078C0F3C0028021C8
:10256000354800F0B3FA33488078C0F300124FF4D6
:102570008051314800F0AAFA2E488078C0F340120A
:102580004FF400512C4800F0A1FA2A488078C0F39B
:1025900080124FF48041284800F098FA254880784E
:1025A000C2094FF40041244800F090FA2148C07855
:1025B00000F001024FF40061204800F087FA1D4846
:1025C000C078C0F3400201211B4800F07FFA19488F
:1025D000C078C0F380020221174800F077FA15484E
:1025E000C078C0F3C0028021144800F06FFA11488F
:1025F000C078C0F300121021104800F067FA0D48AF
:10260000C078C0F3401220210C4800F05FFA09485E
:10261000C078C0F380120421084800F057FA05483A
:10262000C078C2090821054800F050FA10BD00002A
:10263000F809022073000220001802400010024036
:1026400000B587B000BF2E48006840F001002C495B
:1026500008600846006800F00100019000BF00BF5C
:1026600000BF0846006840F008000860084600689F
:1026700000F00800019000BF00BF00BF08460068DE
:1026800040F0200008600846006800F0200001903B
:1026900000BF00BF00BF0846006840F480700860BB
:1026A0000846006800F48070019000BF00BF4FF63C
:1026B000FB700290002003900120049003200590FD
:1026C00002A9104800F078FF4FF63F7002900020FA
:1026D0000390012004900320059002A90A4800F00D
:1026E0006BFF4FF4406002900020039001200490A3
:1026F0000320059002A9054800F05EFF07B000BD69
:1027000030380240000C0240001402400020024019
:1027100000B587B000BF2048006840F010001E4997
:1027200008600846006800F01000019000BF00BF7C
:1027300000BF0846006840F0400008600846006896
:1027400000F04000019000BF00BF4FF6FF70029004
:102750000120039004900320059002A90F4800F087
:102760002BFF00224FF6FF710C4801F03DF84FF6A9
:10277000FF7002900120039004900320059002A9AD
:10278000074800F019FF00224FF6FF71044801F0DE
:102790002BF807B000BD00003038024000100240A6
:1027A0000018024010B5FFF74BFFFFF7B1FF10BD57
:1027B00010B5102000F0F2FE10BD000010B5002290
:1027C00001B909E0012901D10A0205E0022901D17C
:1027D0000A0201E04FF440720B2800D9001D154B8E
:1027E0001B6823F44073134C236023461B68134378
:1027F000236023461B6823F0F803236023461B68ED
:10280000F82494FAA4F4B4FA84F400FA04F444F03A
:1028100002042343074C236023461B6843F48033A0
:10282000236000BF00BF00BFBFF34F8F00BF00BFDA
:1028300000BF10BD103C0240174A126822F44072DB
:10284000154B1A60032906D11A461268DB131A4386
:10285000114B1A600EE0022906D10F4A126842F4A9
:1028600000420D4B1A6005E00B4A126842F0040268
:10287000094B1A60084A12684FF4803343EA002378
:102880001A43054B1A6000BF00BF00BFBFF34F8F54
:1028900000BF00BF00BF7047103C02402DE9F04769
:1028A00004460D4616460027B846B946B4F1006FF7
:1028B00002D304F0030008B1BDE8F08700F052FE37
:1028C000274604EB8608204606F058FE401CC8B98F
:1028D0004CF2503000F0C8F88146B9F1000F10D129
:1028E0000CE0D5F800C0624600233946022000F013
:1028F000E7FD10B9241D2D1D00E0DDE74445F0D3B0
:1029000001E0D9E7D8E700F0D1FD00BFD4E700002F
:102910000B4A126822F44072094B1A601A46126878
:102920001A601A46126842F001021A60017000BF74
:1029300000BF00BFBFF34F8F00BF00BF00BF704795
:10294000103C024010B50D49096821F440710B4C50
:1029500021602146096841F44071216021460968DF
:1029600041F0010121600260436000BF00BF00BF71
:10297000BFF34F8F00BF00BF00BF10BD103C02402F
:102980000C4A126822F440720A4B1A601A46126806
:1029900042F480721A601A46126842F001021A600C
:1029A000018000BF00BF00BFBFF34F8F00BF00BF5B
:1029B00000BF7047103C02400C4A126822F440727B
:1029C0000A4B1A601A46126842F400721A601A46DC
:1029D000126842F001021A60016000BF00BF00BF30
:1029E000BFF34F8F00BF00BF00BF7047103C0240D5
:1029F0001B48006800F0100028B11A48806940F0B8
:102A00001000184988611648006800F0200028B1BD
:102A10001448806940F00800124988611048006835
:102A200000F0400028B10F48806940F004000D49D3
:102A300088610B48006800F0800028B1094880696F
:102A400040F00200074988610548006800F0020074
:102A500028B10448806940F020000249886170472D
:102A60000C3C0240E403022070B50446002500201F
:102A70001049886100F0BEFE054609E0601C38B1CF
:102A800024B100F0B7FE401BA04201D9032070BD65
:102A90000948006800F480300028EFD1064800683B
:102AA00000F0F20018B1FFF7A3FF0120EFE70020CC
:102AB000EDE70000E40302200C3C024002461069EE
:102AC000084008B1012070470020FCE702F0010334
:102AD0000BB1816101E00B048361704710B50246C0
:102AE00012F8010B02E012F8013B58400B00A1F173
:102AF0000104E1B2F7D1C0B210BD0000024909687B
:102B0000C1F300407047000014ED00E018B5024624
:102B10000020009000BF92F83C00012801D1022063
:102B200018BD012082F83C0000BF0868092822D99E
:102B30001068C0680B780A3B03EB43040723A340EB
:102B400098431368D860594B0868984207D11068B9
:102B5000C0680B7A40EA03601368D8601FE00B7806
:102B60000A3B03EB4303886898401368DB6818430B
:102B70001368D86013E0106800690B7803EB430416
:102B80000723A3409843136818610B7803EB4303B2
:102B90008868984013681B6918431368186148686F
:102BA000072817D21068406B0B795B1E03EB830478
:102BB0001F23A340984313685863088880B20B7999
:102BC0005B1E03EB8303984013685B6B1843136829
:102BD000586331E048680D2817D21068006B0B79F4
:102BE000DB1F03EB83041F23A34098431368186380
:102BF000088880B20B79DB1F03EB830398401368CE
:102C00001B6B18431368186316E01068C06A0B79D1
:102C10000D3B03EB83041F23A34098431368D86242
:102C2000088880B20B790D3B03EB8303984013684F
:102C3000DB6A18431368D8621D4B1068984208D1AC
:102C40000868122805D11B48006840F48000C3F8CA
:102C50000403174B1068984220D1144B086898421F
:102C600002D00868112819D11248006840F4000009
:102C7000104B18600D4B086898420FD10E48006841
:102C80000E4BB0FBF3F000EB80004000009002E040
:102C90000098401E009000980028F9D100BF002045
:102CA00082F83C0000BF00BF3AE7000012000010AD
:102CB00000200140042301400000022040420F0098
:102CC000704770477047000070B5044600250CB986
:102CD000012070BD1549A06A884200D000BF206C59
:102CE00030B90020606484F83C00204600F020F8F1
:102CF000206C00F0100088B9206C20F4885040F05F
:102D0000020020642046FEF71BF800206064206C5F
:102D100020F0020040F00100206400E0012500BF27
:102D2000002084F83C0000BF2846D2E70100000FD5
:102D300070470000F8B504460D4616460020009086
:102D400000BF94F83C00012801D10220F8BD012009
:102D500084F83C0000BF2068806800F00100A0B942
:102D60002068806840F00100216888603C48006865
:102D70003C49B0FBF1F000EB4000009002E000980D
:102D8000401E009000980028F9D12068806800F06B
:102D90000100002862D0206C40F20161884340F4B9
:102DA000807020642068406800F4806028B1206C46
:102DB00020F4005040F480502064206C00F48050D7
:102DC00020B1606C20F00600606401E000206064C7
:102DD00000BF002084F83C0000BF2348A16BC863FB
:102DE0002248A16B08642248A16BC8646FF02200DE
:102DF000216808602068406840F080602168486071
:102E00002068806840F4807021688860226802F140
:102E10004C0133462A46A06B00F095FA154800682D
:102E200000F01F0058B92068806800F0405028B9B1
:102E30002068806840F08040216888600EE00E497C
:102E4000206888420AD12068806800F0405028B984
:102E50002068806840F0804021688860002075E725
:102E60000000022040420F00A90C0008310D0008AC
:102E7000170D0008042301400020014070B50446EE
:102E8000A56D00F0B7FC064694F83500022808D07E
:102E90008020606500BF002084F8340000BF01205E
:102EA00070BD2068006820F0160021680860206866
:102EB000406920F0800021684861206C08B9A06C4E
:102EC00028B12068006820F00800216808602068A8
:102ED000006820F00100216808600FE000F08AFC23
:102EE000801B05280AD92020606500BF002084F8D7
:102EF000340000BF032084F83500D1E72068006863
:102F000000F001000028E9D194F85C103F208840CF
:102F1000A86000BF002084F8340000BF012084F8BE
:102F200035000020BCE7014691F83500022803D0A7
:102F30008020486501207047052081F83500086829
:102F4000006820F001000A6810600020F3E770B507
:102F500004460CB9012070BD94F83500022800D158
:102F6000F9E72068006820F001002168086000206F
:102F70002168086021684860216888602168C8600D
:102F8000216808612120216848612046FEF7C2FAC5
:102F9000054694F85C103F208840A86000206065DA
:102FA00084F8350000BF84F8340000BF00BFD2E7CA
:102FB000F8B50446002000908D4800684FF4165183
:102FC000B0FBF1F7A56D2E6894F85C1008208840DE
:102FD000304098B12068006800F0040070B12068AB
:102FE000006820F004002168086094F85C10082054
:102FF0008840A860606D40F00100606594F85C1046
:103000007C488840304068B12068406900F080000A
:1030100040B194F85C1077488840A860606D40F03B
:103020000200606594F85C107248C01C8840304013
:1030300070B12068006800F0020048B194F85C109C
:103040006C48C01C8840A860606D40F0040060655A
:1030500094F85C1010208840304078B320680068F5
:1030600000F0080050B394F85C1010208840A8606D
:103070002068006800F4802080B12068006800F4B7
:10308000002028B9206CC8B12046216C884715E083
:10309000A06C98B12046A16C88470FE020680068BA
:1030A00000F4807028B92068006820F008002168CA
:1030B0000860206C10B12046216C884794F85C10A1
:1030C000202088403040002865D02068006800F04B
:1030D000100000285FD094F85C1020208840A86081
:1030E00094F83500052828D12068006820F01600E3
:1030F000216808602068406920F0800021684861EC
:10310000206C08B9A06C28B12068006820F0080085
:103110002168086094F85C103F208840A86000BFD8
:10312000002084F8340000BF012084F83500206DB1
:1031300010B12046216D8847F8BD2068006800F472
:10314000802080B12068006800F4002028B9606CFD
:1031500010B12046616C88471DE0E06BD8B1204675
:10316000E16B884717E02068006800F4807068B958
:103170002068006820F010002168086000BF00206F
:1031800084F8340000BF012084F83500E06B10B1F2
:103190002046E16B8847606D38B3606D00F0010038
:1031A000F0B1052084F835002068006820F00100A7
:1031B0002168086000BF0098401C0090B84200D908
:1031C00005E02068006800F001000028F3D100BF8E
:1031D00000BF002084F8340000BF012084F83500CF
:1031E000E06C10B12046E16C884700BFA4E7000006
:1031F00000000220010080002DE9F0410446002576
:1032000000F0F8FA074614B90120BDE8F081606AC1
:1032100000B100BF00BF002084F8340000BF0220CE
:1032200084F835002068006820F0010021680860FB
:103230000AE000F0DFFAC01B052805D920206065F0
:10324000032084F83500E0E72068006800F0010002
:103250000028EED12068056820480540D4E9010126
:103260000843E16808432169084361690843A1698B
:103270000843E1690843216A08430543606A04285A
:1032800003D1D4E90B010843054320680560206899
:10329000456925F00705606A0543606A04280BD17B
:1032A000A06A05432046FEF74FF928B1402060652B
:1032B000012084F83500A8E7206845612046FEF724
:1032C00029F9064694F85C103F208840B060002041
:1032D0006065012084F83500002096E73F8010E00B
:1032E0002DE9F04104460D4616461F464FF00008F2
:1032F00000BF94F83400012802D10220BDE8F0811B
:10330000012084F8340000BF94F83500012811D161
:10331000022084F83500002060653B46324629468D
:103320002046FEF76EF92068006840F00100216831
:10333000086006E000BF002084F8340000BF4FF0B2
:1033400002084046DAE72DE9F04704460D461646E6
:103350001F464FF00008D4F8589000BF94F834008E
:10336000012802D10220BDE8F087012084F8340052
:1033700000BF94F8350001282BD1022084F83500D5
:10338000002060653B46324629462046FEF739F963
:1033900094F85C103F208840C9F808002068006855
:1033A00040F01600216808602068406940F0800005
:1033B00021684861206C28B12068006840F008004E
:1033C000216808602068006840F0010021680860FA
:1033D00006E000BF002084F8340000BF4FF0020870
:1033E0004046C0E731B5002400F004FA044600BFAF
:1033F00000F000FA001B00998842F9D338BD0000A4
:103400002DE9F04104460E460127002500BF25485E
:10341000007D012802D10220BDE8F0810120214970
:10342000087500BF4CF25030FFF71EFB0746002F17
:1034300030D1401E30602068012810D1207C6168A6
:10344000FFF7FAF94CF25030FFF70EFB074616482B
:10345000006848F204018843134908601AE0A5682F
:1034600012E0217C2846FFF7A9F94CF25030FFF713
:10347000FBFA07460C48006820F0FA000A49086089
:103480000FB1356005E06D1CD4E902100844A84274
:10349000E7D800BF00BF00200249087500BF3846CA
:1034A000BAE70000E4030220103C02400348006831
:1034B00040F000400149086000207047103C024085
:1034C0002DE9F04106460F4614461D464FF001080F
:1034D00000BF2248007D012802D10220BDE8F08112
:1034E00001201E49087500BF4CF25030FFF7BCFAAE
:1034F0008046B8F1000F29D136B1012E09D0022E35
:103500000CD0032E15D10EE0E1B23846FFF700FAD9
:1035100010E0A1B23846FFF733FA0BE021463846F7
:10352000FFF74AFA06E022462B463846FFF70AFA2A
:1035300000E000BF00BF4CF25030FFF795FA804624
:103540000748006820F001000549086000BF00201E
:103550000249087500BF4046C0E70000E4030220AE
:10356000103C02400748006800F0004030B10648B7
:1035700004490C3908600548086001E001207047E3
:103580000020FCE7103C024023016745AB89EFCDEA
:10359000102800D100BF00BF7047000010B50446DE
:1035A00004480068204020B1024804602046FFF72C
:1035B000EFFF10BD143C0140F8B502460B46002158
:1035C00000250024002000BFE4E0012606FA01F5F2
:1035D0001E6806EA0504AC4271D15E68022E02D074
:1035E0005E68122E13D1CF0802F1200656F827008C
:1035F0004E07F70E0F26BE40B0434F07FF0E1E6961
:10360000BE403043CF0802F1200646F8270010687C
:103610004F000326BE40B0431E7906F003064F005C
:10362000BE40304310605E68012E08D05E68022EF6
:1036300005D05E68112E02D05E68122E13D19068FC
:103640004F000326BE40B0434F00DE68BE4030430B
:103650009060506801268E40B0431E79C6F3001674
:103660008E4030435060D0684F000326BE40B043C8
:103670004F009E68BE403043D0605E6806F08056C2
:10368000B6F1805FA8D100BF444E366846F480464C
:10369000424F3E603E46366806F48046009600BFC4
:1036A00000BF3F4E8F0856F827008E07370F0F26B2
:1036B000BE40B0433B4EB24202D100262EE068E04D
:1036C000394EB24201D1012628E0384EB24201D132
:1036D000022623E0364EB24201D103261EE0354ECB
:1036E000B24201D1042619E0334EB24201D105267F
:1036F00014E0324EB24201D106260FE0304EB24203
:1037000001D107260AE02F4EB24201D1082605E07A
:103710002D4EB24201D1092600E00A268F073F0F45
:10372000BE4030431E4E8F0846F82700274E3068B3
:10373000A0435E6806F48036B6F5803F00D1204392
:10374000224E3060361D3068A0435E6806F40036B5
:10375000B6F5003F00D120431C4E361D3060361DAB
:103760003068A0435E6806F48016B6F5801F00D16D
:103770002043164E08363060361D3068A0435E6820
:1037800006F40016B6F5001F00D120430F4E0C368C
:103790003060491C1029FFF418AFF8BD44380240CE
:1037A00008380140000002400004024000080240C6
:1037B000000C0240001002400014024000180240B9
:1037C000001C02400020024000240240003C014056
:1037D000024613690B400BB1012000E00020704746
:1037E00042694A40426170470AB1816101E00B04BD
:1037F0008361704701480068704700001000022094
:1038000070B504460CB9012070BD4CF6CC4021685F
:10381000086045F2555021680860D4E900104860FE
:103820002168A0688860FFF7E5FF054606E0FFF71E
:10383000E1FF401B302801D90320E5E72068C0687C
:103840000028F4D120680169E068814203D0216832
:10385000E068086103E04AF6AA20216808600020B9
:10386000D2E701464AF6AA200A6810600020704795
:1038700002480068401C014908607047100002209F
:1038800010B50848006840F400700649086005203B
:1038900000F098F80F2000F007F800F047F800203B
:1038A00010BD0000003C024070B5044607480068A7
:1038B0004FF47A71B0FBF1F5284602F0A9FB002223
:1038C0002146501E00F040F8002070BD000002208C
:1038D0004178154A11600178F9B1121D41681160F3
:1038E000017B0907C27A41EA0261827A41EAC24158
:1038F000427B41EA8241827B41EA4241C27B41EA0A
:103900000241427A41EA0221027A41EA4201027806
:103910001143054A0832116005E00021024A121DD8
:103920001160121D1160704798ED00E0704700BFF4
:1039300000F01F02012191404209920002F1E022B1
:10394000C2F8001100BF70472DE9F05F80460D46B8
:103950001646002703F0A2FA074639462A463346A0
:1039600001F00700C0F1070ABAF1040F02D94FF0C5
:10397000040A01E0C0F1070AD14600F1040ABAF1D5
:10398000070F02D24FF0000A01E0A0F1030AD4466B
:103990004FF0010A0AFA09FAAAF1010A0AEA020A30
:1039A0000AFA0CFA4FF0010B0BFA0CFBABF1010B0E
:1039B0000BEA030B4AEA0B042146404603F076FA71
:1039C000BDE8F09F00BF00F00702064B19684FF6F4
:1039D000FF031940044B0B4343EA0221014B1960DA
:1039E00000BF70470CED00E00000FA0538B5002478
:1039F00000BF2048006840F080501E49086008461B
:103A0000006800F08050009000BF00BF1A480068B6
:103A100040F4803018490860FFF7ECFE044607E0E8
:103A2000FFF7E8FE001BB0F57A7F01D9032038BD0F
:103A30001148406800F48030B0F5803FF0D10E4866
:103A4000006840F400300C490860FFF7D3FE0446DC
:103A500007E0FFF7CFFE001BB0F57A7F01D9032006
:103A6000E5E70548406800F40030B0F5003FF0D1CC
:103A70000020DCE740380240007000400348006846
:103A800040F48070014908607047000000700040F9
:103A90002DE9F8430446002600250027A846A9463C
:103AA000207800F0010088B100BFFE48006820F4D3
:103AB0000000FC49086008460068616B0843F9494A
:103AC000086000BF606B08B94FF00108206800F47F
:103AD0000020B0F5002F13D1F2488430006820F4A4
:103AE0004010E16B0843EF4984310860E06BB0F5AA
:103AF000801F01D14FF00108E06B08B94FF00109B8
:103B0000206800F48010B0F5801F13D1E5488430A0
:103B1000006820F44000216C0843E24984310860C9
:103B2000206CB0F5800F01D14FF00108206C08B96E
:103B30004FF00109206800F08070B0F1807F01D162
:103B40004FF00108207800F02000202870D100BF3D
:103B5000D4483830006840F08050D249383108608D
:103B60000846006800F08050009000BF00BFCE48BB
:103B7000006840F48070CC490860FFF73BFE0646C1
:103B800007E0FFF737FE801B642802D90320BDE859
:103B9000F883C548006800F480700028F1D0C1485F
:103BA0006830006800F4407585B3208E00F44070E2
:103BB000A8422BD0BB486830006820F44075B94853
:103BC0006830006840F48030B649683108600846C3
:103BD000006820F48030086008460560006800F046
:103BE000010098B1FFF706FE064608E0FFF702FE67
:103BF000801B41F28831884201D90320C7E7A948D8
:103C000068300068C0F340000028EFD000BF208E6D
:103C100000F44070B0F5407F0BD1A248006820F45A
:103C2000F810A24A216B114008439E49086006E043
:103C300010E09C48006820F4F8109A490860994800
:103C400068300068218EC1F30B0108439549683143
:103C5000086000BF207800F01000102810D100BFCD
:103C600090488430006820F080708E49843108606C
:103C700008460068A16B08438A498431086000BF88
:103C8000208800F48040B0F5804F09D18548883005
:103C9000006820F44030616E084382498831086032
:103CA000208800F40040B0F5004F09D17D488830ED
:103CB000006820F44020A16E08437A4988310860EA
:103CC000206800F48030B0F5803F09D17548883015
:103CD000006820F44010E16E0843724988310860A2
:103CE000206800F40030B0F5003F09D16D488830FD
:103CF000006820F44000216F08436A498831086059
:103D0000207800F04000402809D1664888300068DB
:103D100020F00300616C0843624988310860207814
:103D200000F08000802809D15E488830006820F0CB
:103D30000C00A16C08435B4988310860208800F4BE
:103D40008070B0F5807F09D156488830006820F037
:103D50003000E16C0843534988310860208800F442
:103D60000070B0F5007F09D14E488830006820F01F
:103D7000C000216D08434B4988310860208800F459
:103D80008060B0F5806F09D146488830006820F423
:103D90004070616D0843434988310860208800F411
:103DA0000060B0F5006F09D13E488830006820F40B
:103DB0004060A16D08433B4988310860208800F4C9
:103DC0008050B0F5805F09D136488830006820F413
:103DD0004050E16D0843334988310860208800F481
:103DE0000050B0F5005F09D12E488830006820F4FB
:103DF0004040216E08432B4988310860206800F458
:103E00008000B0F5800F09D126488830006820F086
:103E10008060A16F0843234988310860206800F45E
:103E20000010B0F5001F0FD11E488830006820F048
:103E30000060E16F08431B4988310860E06FB0F112
:103E4000006F01D14FF00109207800F00800082828
:103E500001D14FF00109206800F48020B0F5802FD7
:103E600009D110488830006820F04070616F084325
:103E70000C4988310860206800F40000B0F5000F9C
:103E80000AD108488830006820F08050D4F88010AB
:103E90000843044988310860206800F08060B0F170
:103EA000806F05E00838024000700040FFFCFF0F03
:103EB00008D1FE48006820F00050D4F88410084370
:103EC000FA490860206800F00060B0F1006F0AD184
:103ED000F648001F006820F00070D4F888100843EE
:103EE000F249091F0860206800F08050B0F1805F3F
:103EF0000AD1EE48001F006820F08060D4F88C10D2
:103F00000843EA49091F0860B8F1010F03D020688F
:103F1000B0F1007F7DD1E5489038006820F08060E6
:103F2000E24990390860FFF765FC064606E0FFF7B6
:103F300061FC801B642801D9032028E6DB48903807
:103F40000068C0F3C0600028F1D1207800F00100C3
:103F5000F0B3606BE0BBD5480C38006800F440302B
:103F60004FF4403191FAA1F1B1FA81F120FA01F553
:103F7000CE480C38006800F070604FF0706191FA24
:103F8000A1F1B1FA81F120FA01F747F6C07191FA77
:103F9000A1F1B1FA81F1606888404FF4403191FAA3
:103FA000A1F1B1FA81F105FA01F108434FF0706116
:103FB00091FAA1F1B1FA81F107FA01F108434FF04A
:103FC000E04292FAA2F2B2FA82F2A168914000E0D5
:103FD00003E00843B5490C390860206800F400206C
:103FE000B0F5002F03D1E06BB0F5801F09D0206839
:103FF00000F48010B0F5801F50D1206CB0F5800F18
:104000004CD1AA480C38006800F440304FF44031DD
:1040100000E0CFE091FAA1F1B1FA81F120FA01F5C7
:10402000A2480C38006800F0E0404FF0E04191FAFF
:10403000A1F1B1FA81F120FA01F747F6C07191FAC6
:10404000A1F1B1FA81F1606888404FF4403191FAF2
:10405000A1F1B1FA81F105FA01F108434FF0706264
:1040600092FAA2F2B2FA82F2E168914008434FF06C
:10407000E04191FAA1F1B1FA81F107FA01F10843A7
:104080008A490C3908608948001F006820F01F0029
:10409000616A491E08438549091F0860206800F0CD
:1040A0008070B0F1807F3FD180480C38006800F00C
:1040B00070604FF0706191FAA1F1B1FA81F120FACC
:1040C00001F57A480C38006800F0E0404FF0E0411C
:1040D00091FAA1F1B1FA81F120FA01F747F6C07126
:1040E00091FAA1F1B1FA81F1606888404FF4403251
:1040F00092FAA2F2B2FA82F22169914008434FF09B
:10410000706191FAA1F1B1FA81F105FA01F1084368
:104110004FF0E04191FAA1F1B1FA81F107FA01F112
:10412000084362490C390860206800F00070B0F163
:10413000007F25D147F6C07191FAA1F1B1FA81F162
:10414000606888404FF4403292FAA2F2B2FA82F2EA
:104150002169914008434FF0706292FAA2F2B2FADC
:1041600082F2E168914008434FF0E04292FAA2F2F5
:10417000B2FA82F2A168914008434C490C390860B8
:104180004A489038006840F080604849903908609B
:10419000FFF730FB064606E0FFF72CFB801B642888
:1041A00001D90320F3E4414890380068C0F3C060AF
:1041B0000028F1D0B9F1010F69D13C48903800686E
:1041C00020F08050394990390860FFF713FB06460C
:1041D00006E0FFF70FFB801B642801D90320D6E41B
:1041E000324890380068C0F340700028F1D1206850
:1041F00000F40020B0F5002F01D1E06B38B1206849
:1042000000F48010B0F5801F4FD1206CF0BB274820
:104210000838006800F440304FF4403191FAA1F1C1
:10422000B1FA81F120FA01F520480838006800F061
:10423000E0404FF0E04191FAA1F1B1FA81F120FAAA
:1042400001F747F6C07191FAA1F1B1FA81F1606905
:1042500088404FF4403191FAA1F1B1FA81F105FAA9
:1042600001F108434FF0706292FAA2F2B2FA82F2C0
:10427000A169914008434FF0E04191FAA1F1B1FAF0
:1042800081F107FA01F10843084901E00DE0BBE0C4
:1042900008390860081D006820F4F851A06A401E23
:1042A00041EA00200149091F086001E090380240FE
:1042B000206800F40010B0F5001F40D1E06FB0F1AD
:1042C000006F3CD15148006800F070604FF07061A1
:1042D00091FAA1F1B1FA81F120FA01F54B48006899
:1042E00000F0E0404FF0E04191FAA1F1B1FA81F124
:1042F00020FA01F747F6C07191FAA1F1B1FA81F104
:10430000606988404FF4403292FAA2F2B2FA82F227
:10431000216A914008434FF0706191FAA1F1B1FA1E
:1043200081F105FA01F108434FF0E04191FAA1F162
:10433000B1FA81F107FA01F10843344908602078A5
:1043400000F00800082845D13048006800F070608F
:104350004FF0706191FAA1F1B1FA81F120FA01F503
:104360002A48006800F440304FF4403191FAA1F13E
:10437000B1FA81F120FA01F747F6C07191FAA1F183
:10438000B1FA81F1606988404FF4403191FAA1F1AE
:10439000B1FA81F107FA01F108434FF0706191FA27
:1043A000A1F1B1FA81F105FA01F108434FF0E042C1
:1043B00092FAA2F2B2FA82F2E169914008431349FB
:1043C0000860081D006820F44030E16A08430F4986
:1043D000091D08600D488838006840F080500B497E
:1043E00088390860FFF706FA064606E0FFF702FA8A
:1043F000801B642801D903209FE5044888380068A1
:10440000C0F340700028F1D0002096E588380240C3
:1044100070B504460D4600266648006800F00F009F
:10442000A8420ED26348006820F00F00284361497B
:1044300008600846006800F00F00A84201D0012083
:1044400070BD207800F00200022807D15A480068A9
:1044500020F0F000A168084357490860207800F078
:104460000100002860D06068012807D15248083850
:104470000068C0F34040A0B90120E1E7606802286D
:1044800007D14D4808380068C0F3406048B90120A2
:10449000D6E7494808380068C0F3400008B9012051
:1044A000CEE74548006820F00300616808434249B0
:1044B0000860FFF79FF906466068012810D108E000
:1044C000FFF798F9801B41F28831884201D9032017
:1044D000B6E73948006800F00C000428F0D123E06A
:1044E0006068022810D108E0FFF784F9801B41F2D0
:1044F0008831884201D90320A2E72F48006800F0E4
:104500000C000828F0D10FE008E0FFF773F9801BDA
:1045100041F28831884201D9032091E7264800689A
:1045200000F00C000028F0D12248006800F00F00D5
:10453000A8420ED91F48006820F00F0028431D49EB
:1045400008600846006800F00F00A84201D0012072
:1045500076E7207800F00400042807D116480068A8
:1045600020F4E050E168084313490860207800F027
:104570000800082808D11048006820F4604021692C
:1045800040EAC1000C49086000F04EF80A49096889
:1045900001F0F001F02292FAA2F2B2FA82F2D140D6
:1045A000064A515CC840064908600F20FFF77CF9B5
:1045B000002045E7003C024008380240A0160108F0
:1045C000000002200148006870470000000002203F
:1045D00000B5FFF7F7FF0749096801F4E0514FF410
:1045E000E05292FAA2F2B2FA82F2D140024A515C4F
:1045F000C84000BD08380240B016010800B5FFF7FA
:10460000E1FF0749096801F460414FF4604292FA02
:10461000A2F2B2FA82F2D140024A515CC84000BD17
:1046200008380240B016010870B5002100220023AE
:104630000020274C246804F00C0424B1042C04D07E
:10464000082C41D103E0234840E023483EE0204CC1
:10465000241F246804F03F011D4C241F246804F427
:10466000800484B11C4CB4FBF1F5194C241F246860
:1046700047F6C076344096FAA6F6B6FA86F6F440C7
:1046800005FB04F20FE0134CB4FBF1F5104C241FB2
:10469000246847F6C076344096FAA6F6B6FA86F64F
:1046A000F44005FB04F20A4C241F246804F440344F
:1046B0004FF4403595FAA5F5B5FA85F5EC40641C44
:1046C0006300B2FBF3F001E0024800BF00BF70BD21
:1046D000083802400024F40040787D0138B50446D3
:1046E0000025207800F00100002871D0FE48006805
:1046F00000F00C0004280DD0FB48006800F00C000E
:10470000082813D1F848001F006800F48000B0F5B5
:10471000800F0BD1F44808380068C0F340400028EF
:1047200069D06068002866D1012038BD00BF60688C
:10473000B0F5803F08D1EC480838006840F480307C
:10474000E949083908602EE0606868B9E648083829
:10475000006820F48030E4490839086008460068A1
:1047600020F4802008601EE06068B0F5A02F0DD115
:10477000DD480838006840F48020DB4908390860CB
:104780000846006840F4803008600CE0D6480838DD
:10479000006820F48030D449083908600846006871
:1047A00020F48020086000BF606890B1FFF722F815
:1047B000054606E0FFF71EF8401B642801D90320D8
:1047C000B3E7C94808380068C0F340400028F1D07A
:1047D00011E0FFF70FF8054606E0FFF70BF8401B66
:1047E000642801D90320A0E7BF4808380068C0F357
:1047F00040400028F1D1207800F00200022873D157
:10480000B948006800F00C0058B1B748006800F0E3
:104810000C00082821D1B448001F006800F4800073
:10482000D8B9B14808380068C0F3400020B1E0684A
:10483000012801D0012078E7AB480838006820F053
:10484000F800F82292FAA2F2B2FA82F221699140BB
:104850000843A5490839086046E0E06850B3A2481B
:104860000838006840F001009F4908390860FEF7E9
:10487000C1FF054606E0FEF7BDFF401B022801D937
:10488000032052E7984808380068C0F34000002829
:10489000F1D095480838006820F0F800F82292FA24
:1048A000A2F2B2FA82F22169914008438E49083996
:1048B000086019E08C480838006820F001008A4937
:1048C00008390860FEF796FF054606E0FEF792FFFE
:1048D000401B022801D9032027E7834808380068D5
:1048E000C0F340000028F1D1207800F0080008282B
:1048F00036D16069D0B17C486C30006840F001006E
:1049000079496C310860FEF775FF054606E0FEF751
:1049100071FF401B022801D9032006E772486C3062
:104920000068C0F340000028F1D019E06E486C30F8
:10493000006820F001006C496C310860FEF75AFFF6
:10494000054606E0FEF756FF401B022801D903206A
:10495000EBE665486C300068C0F340000028F1D1F8
:10496000207800F00400042871D100BF5E48383080
:10497000006840F080505C493831086008460068A3
:1049800000F08050009000BF00BF5848006840F41D
:10499000807056490860FEF72DFF054606E0FEF7D9
:1049A00029FF401B642801D90320BEE64F48006858
:1049B00000F480700028F2D000BFA068012808D160
:1049C00049486830006840F0010047496831086094
:1049D0002DE0A06868B944486830006820F0010004
:1049E0004149683108600846006820F0040008600A
:1049F0001DE0A06805280DD13B486830006840F0F4
:104A000004003949683108600846006840F0010038
:104A100008600CE034486830006820F0010032493A
:104A2000683108600846006820F00400086000BF94
:104A3000A068A8B1FEF7DEFE054609E0FEF7DAFE43
:104A4000401B41F28831884202D903206DE61BE009
:104A5000254868300068C0F340000028EED013E01D
:104A6000FEF7C8FE054608E0FEF7C4FE401B41F213
:104A70008831884201D9032057E61B486830006816
:104A8000C0F340000028EFD1A06988B31648006841
:104A900000F00C00082873D0A069022864D11248E5
:104AA0000838006820F080700F4908390860FEF768
:104AB000A1FE054606E0FEF79DFE401B022801D937
:104AC000032032E6084808380068C0F34060002838
:104AD000F1D1D4E90701084347F6C07292FAA2F275
:104AE000B2FA82F2616A04E00838024000700040C5
:104AF00058E0914008430122A16AC2EB51014FF4F2
:104B0000403292FAA2F2B2FA82F2914008434FF098
:104B1000706292FAA2F2B2FA82F2E16A914008431C
:104B20004FF0E04292FAA2F2B2FA82F2216B914087
:104B300008431D490860081F006840F08070091F85
:104B40000860FEF757FE054606E0FEF753FE401BE1
:104B5000022801D90320E8E51348001F0068C0F3CC
:104B600040600028F1D01DE00F48001F006820F0D1
:104B700080700D49091F0860FEF73CFE054607E0FE
:104B80000EE0FEF737FE401B022801D90320CCE5DA
:104B90000548001F0068C0F340600028F1D101E023
:104BA0000120C2E50020C0E5043802402DE9F041B3
:104BB00004460D460026002700BF207A012802D1B6
:104BC0000220BDE8F0810120207200BF607A012838
:104BD00020D102206072FEF70DFE06460CE0FEF7C3
:104BE00009FE801B022807D90420607200BF002044
:104BF000207200BF0320E4E72068406800F0010055
:104C00000028ECD02068806860606068286001201F
:104C1000607200E0012700BF0020207200BF38460C
:104C2000CFE710B50446211D2046FFF7BFFF08B9A6
:104C3000606810BD0020FCE710B504460CB90120E7
:104C400010BD00BF207A012801D10220F8E7012021
:104C5000207200BF607A20B900202072204600F048
:104C600011F8022060722068006840F0040021689A
:104C700008600120607200BF0020207200BF00BFEA
:104C8000DEE7000008B500BF0649096841F04001B1
:104C9000044A11601146096801F04001009100BF0B
:104CA00000BF08BD343802407047000010B504460C
:104CB00002210248FEF794FD10BD000000200240D2
:104CC00010B504462068C068C0F3802078B1206821
:104CD000806800F4804050B12046FFF7E7FF20686D
:104CE000C06800F0800060F490602168C8604FF4F4
:104CF0008000024908600120607710BD143C01402B
:104D000010B5044601A0FBF79FFB10BD414C41527A
:104D10004D2041210D0A000010B504462068C068EE
:104D200000F48070000A78B12068806800F4805038
:104D300050B12046FFF7E4FF2068C06800F0800013
:104D400060F4C0702168C8602068C06800F400701A
:104D5000400A78B12068806800F4005050B12046C5
:104D6000FFF7A2FF2068C06800F0800060F42070A8
:104D70002168C8604FF40030024908600120607764
:104D800010BD0000143C014070B505460B461646A8
:104D90000024286840680E4900EA0104200CD870FD
:104DA000C4F30420587004F03F009870C4F34230FC
:104DB00018705EB9D87802F0E7FED870587802F023
:104DC000E3FE5870987802F0DFFE9870002070BD06
:104DD0003FFFFF0070B504460B46164600252068CD
:104DE000806A586020680069C0F30E0098602068EF
:104DF00000680F4900EA0105C5F305401870C5F3C6
:104E00000620587005F07F00987005F48000000CB3
:104E100018735EB9187802F0B7FE1870587802F06F
:104E2000B3FE5870987802F0AFFE9870002070BD05
:104E30007F7F7F0010B504460CB9012010BD607F54
:104E400020B900202077204600F04EF8022060773D
:104E500000BFCA202168486253202168486200BF11
:104E6000204602F0A9FE40B100BFFF202168486241
:104E700000BF042060770120E0E7206880681949BE
:104E800008402168886021696068084361690843B7
:104E9000216889680843216888602168E0680861A2
:104EA00020680169208941EA004021680861206882
:104EB000C06820F080002168C8602068C06C20F0C5
:104EC00008002168C8642068C06CA1690843216893
:104ED000C86400BFFF202168486200BF01206077DE
:104EE0000020ABE7BFFF8FFF10B5B2B0044600BF94
:104EF0001448006840F08050124908600846006875
:104F000000F08050009000BF00BFFEF7B7FD042006
:104F1000259000202B900120279025A8FFF7DEFB8D
:104F200020200190C0000D9001A8FEF7B1FD0548BA
:104F30003030006840F4004002493031086032B03F
:104F400010BD0000403802402DE9F04104460D46F6
:104F50001646002700BF207F012802D10220BDE8AD
:104F6000F0810120207700BF022060774EB9687879
:104F700000F01000102804D1687800F0EF000A302B
:104F8000687086B9E87802F00AFE0304687802F0D7
:104F900006FE43EA0023A87802F001FE03432878C6
:104FA00043EA403711E0687802F0EEFD0746A87842
:104FB00002F0EAFD0746E8780004697840EA01203B
:104FC000A9780843297840EA413700BFCA20216800
:104FD000486253202168486200BF204602F0ECFD81
:104FE00060B100BFFF202168486200BF04206077E5
:104FF00000BF0020207700BF0120B0E716483840EE
:10500000216848602068C06820F080002168C8607E
:105010002068806800F0200080B9204600F0B8F8D1
:1050200060B100BFFF202168486200BF04206077A4
:1050300000BF0020207700BF012090E700BFFF20C5
:105040002168486200BF0120607700BF0020207700
:1050500000BF00BF83E700003FFFFF002DE9F041E4
:1050600004460D461646002700BF207F012802D1C6
:105070000220BDE8F0810120207700BF0220607788
:10508000CEB92068806800F0400000B102E0002046
:10509000287300BF287802F082FD0304687802F0CC
:1050A0007EFD43EA0023A87802F079FD0343287BC4
:1050B00043EA004716E02068806800F0400020B115
:1050C000287802F061FD074602E00020287300BF47
:1050D00028780004697840EA0120A9780843297BF0
:1050E00040EA014700BFCA20216848625320216876
:1050F000486200BF204602F05FFD60B100BFFF20A4
:105100002168486200BF0420607700BF002020773C
:1051100000BF0120ADE71D483840216808602068C5
:10512000806820F4802021688860D5E90401084364
:10513000216889680843216888602068C06820F079
:1051400080002168C8602068806800F0200080B975
:10515000204600F01DF860B100BFFF2021684862C2
:1051600000BF0420607700BF0020207700BF01202F
:105170007FE700BFFF202168486200BF0120607701
:1051800000BF0020207700BF00BF72E77F7F7F0055
:1051900070B5044600252068C06820F0A000216892
:1051A000C860FEF727FB054607E0FEF723FB401B20
:1051B000B0F57A7F01D9032070BD2068C06800F087
:1051C00020000028F1D00020F6E72DE9F047044642
:1051D0000E4600273546D4F85080D4F84890E06C4D
:1051E00000F0FF0A07E0D4F85080D4F84890E06C53
:1051F00000F0FF0A6D1E08EA090020B9BAF1000F9D
:1052000001D1002DEFD1354600E06D1E2068406BC6
:1052100000F4005008B1002DF7D1606D012803D1D2
:10522000204600F0D7FB07460DB907B9042740F226
:10523000FF5021688863E06C18B1E06CC0B2BDE833
:10524000F0873846FBE72DE9F04704460E46002775
:105250003546D4F85080D4F84890E06C00F0FF0A4E
:1052600007E0D4F85080D4F84890E06C00F0FF0AD2
:105270006D1E08EA090020B9BAF1000F01D1002D16
:10528000EFD1354600E06D1E2068406B00F4805081
:1052900008B1002DF7D1606D032803D1204600F03E
:1052A00099FB07460DB907B9042740F2FF50216862
:1052B0008863E06C18B1E06CC0B2BDE8F08700BF55
:1052C000204600F008F80028FAD13846F5E7704784
:1052D00070477047704770B505460424284603F0B0
:1052E0005EFB0446042C01D1002070BDFF2C01D1CF
:1052F0000220FAE70120F8E72DE9F04103460020FB
:10530000002293F8204081F856409C8CA1F854402C
:105310009C6A220E94090C70C2F383044C7002F054
:1053200003048C709C6AC4F30742CA701C8DC4F3DA
:1053300007220A7193F828204A71DC6A220E4FF680
:10534000FF7404EA0214CC80DC6AC4F30742CC8800
:1053500044EA1214CC8002F00F040C729C8DC4F34A
:105360000722D4094C72C2F380148C72C2F3401429
:10537000CC72C2F300140C7300244C731C6A14B179
:105380001C6A012C4DD19407240D0C612C24E25C85
:105390000C6944EA82040C611C6B220E0C6944EA1D
:1053A00092140C61C2F3C2040C7502F007044C7530
:1053B0001C6BC4F3074254098C75C2F38204CC758C
:1053C0009407640F0C761C8EC4F307220C7E44EA0B
:1053D000D2140C760C69641C0025C1E912450C7EC0
:1053E000D1E91267A41C012505FA04F44FEAE47C14
:1053F000A6FB045807FB048406FB0C44C1E91254C5
:105400000D7A0124AC400C650026D1E912570C6DD1
:10541000A5FB04C807FB048405FB0644C1E912C4CC
:1054200035E01C6A022C31D12C24E25C9406A40ADB
:105430000C611C6B220E0C6944EA02240C611C6B8B
:10544000C4F307420C6914430C611C8EC4F3072299
:105450000C690025641C45EB050C4FF40077002611
:10546000A4FB07580CFB078704FB067C4FF48067FE
:105470002C466546B446A4FB076805FB078504FB7C
:105480000C54C1E912647C100C6500E02920C2F3C1
:10549000801401F8194F9406640E4C703024E25CBD
:1054A0004C7844EAD2144C7002F07F048C705C6B30
:1054B000220ED409CC70C2F341140C71C2F38204E1
:1054C0004C719407240F8C715C6BC4F307428C7988
:1054D00044EA92148C71C2F34014CC7100240C7213
:1054E00002F001044C729C8EC4F30722D4098C7222
:1054F000C2F38014CC72C2F340140C73C2F30014D4
:105500004C73C2F381048C7302F00304CC73342413
:10551000E25C54080C7401244C749C6B220ECA7417
:1055200019399C6BC4F307424FF6FF7404EA022555
:10553000CD851C8FC4F30722CC8D1443CC8593F802
:10554000382015060D63DC6B220E0C6B44EA024515
:105550000D63DC6BC4F307420C6B44EA02250D6358
:105560009C8FC4F307220C6B14430C633C24E25C55
:10557000342462541C6C220E352462541C6CC4F317
:10558000074215068D634024E45AC4F307228C6B4E
:1055900044EA02458D634024E25C8C6B44EA0225B8
:1055A0008D635C6C220E8C6B14438C635C6CC4F357
:1055B00007423C24645C44EA12143C256C541407F2
:1055C000250DCD874424E45AC4F30722CC8F14431D
:1055D000CC874424E25C55084024655401254124CD
:1055E0006554BDE8F08110B504462068406B00F4B6
:1055F000807058B14FF48070216888630120A064E6
:105600000020E064204600F0CDFA35E02068406BD1
:1056100000F0020038B1022021688863E06420466F
:1056200000F0C1FA28E02068406B00F0080040B1AB
:105630000820216888630420E064204600F0B3FA63
:105640001AE02068406B00F0200040B12020216863
:1056500088630620E064204600F0A5FA0CE020688C
:10566000406B00F0100038B11020216888630520DD
:10567000E064204600F097FA2068C06B4CF23A11C3
:1056800088432168C86310BD30B58BB004460D4611
:1056900000200A902077204600F044F80020049073
:1056A00005900690079008907620099007A807C8F3
:1056B0008DE80700206804A90EC902F04FFD2046BE
:1056C00003F028FA0A909DF8280018B19DF82800E8
:1056D0000BB030BD204603F097F90A909DF82800E2
:1056E00010B19DF82800F3E729462046FFF704FE95
:1056F0000A909DF8280040B9B5F8540001040A4604
:105700000023204603F02AFB0A90D4E90412A06982
:10571000CDE90012029094E80F0002F01FFD9DF801
:105720002800D5E710B586B0044600BF5B48006886
:1057300040F40060594908600846006800F40060C1
:10574000009000BF00BF00BF54481438006840F408
:1057500080005249143908600846006800F480004F
:10576000009000BF00BF00BF0846006840F0040082
:1057700008600846006800F00400009000BF00BF09
:1057800000BF0846006840F008000860084600684E
:1057900000F00800009000BF00BF4FF4F8500190E7
:1057A0000220029001200390032004900C20059019
:1057B00001A93B48FDF700FF0420019001A93948E9
:1057C000FDF7FAFE002202213120FEF7BDF831205C
:1057D000FEF7ADF83448354908604FF00060486086
:1057E000002132488160C1604FF48061016189000D
:1057F0004161890081612021C1614FF44031016222
:1058000004214162032181624FF40001C1628910C9
:10581000016300BFA065846300BFFDF798FB2348C8
:10582000FDF7EAFC20484830214908604FF000604D
:10583000486040211E4881600021C1604FF48061B2
:10584000016189004161890081612021C1614FF4BA
:105850004031016204214162032181624FF4000161
:10586000C1628910016300BFE065846300BFFDF77A
:105870006EFB0F48FDF7C0FC002203213B20FEF722
:1058800063F83B20FEF753F8002203214520FEF782
:105890005BF84520FEF74BF806B010BD44380240D7
:1058A00000080240000C02405864024050070220E9
:1058B000F00602202DE9F0478CB004468A461646D1
:1058C0001F46DDE914854FF0000900202168C862F9
:1058D000A0642065E064012D02D90120606501E02B
:1058E000002060652068C06B40F495702168C86333
:1058F0002068C06A40F008002168C8623348A16D82
:10590000C8633348A16DC86408FB05F29308226898
:1059100002F180015246A06DFDF715FD206A0228B4
:1059200009D14FF400780202002330463946FAF7D5
:1059300014FD06460F46CDF81C801020089040202C
:10594000099000200A904FF480600B9007A920680E
:1059500002F027FC1021204602F06CFC8146B9F1D0
:10596000000F03D048460CB0BDE8F0874FF0FF3081
:10597000019008FB05F00290902003900220049013
:10598000002005900120069001A9206802F0BCFBD0
:10599000012D02D91220089001E0112008900796ED
:1059A00007A9206802F0FDFB012D05D91221204630
:1059B00002F040FC814604E01121204602F03AFC4E
:1059C0008146C4F84C904846CDE70000E9870008BE
:1059D0000988000830B585B00446002500200090F5
:1059E0000C20019040200290002003904FF4806032
:1059F00004906946206802F0D4FB0C21204602F096
:105A000019FC0546284605B030BD70B58AB004467D
:105A10000D460026206A032803D1272630460AB007
:105A200070BD206A28B1206A012802D0206A0228AD
:105A300028D1B5F5805F01D127260EE0B5F5006FBE
:105A400004D1204603F01CFA064606E025B920469C
:105A500003F0C9F9064600E026269EB96068049066
:105A6000A0680590E0680690079560690890A069B5
:105A7000099007A807C88DE80700206804A90EC987
:105A800002F06CFB3046CAE72DE9F0478CB00446C3
:105A90008A4617469846DDE91495002600202168BD
:105AA000C862A0642065E064012D02D9032060650E
:105AB00001E0022060652068C06B40F48D702168B1
:105AC000C8633648E16DC8633548E16DC86409FBB9
:105AD00005F18B08216801F180025146E06DFDF768
